:020000040800F2
:1000000098280020894B0008B1490008754B00086A
:1000100000000000000000000000000000000000E0
:10002000000000000000000000000000A94C0008D3
:1000300000000000000000005D4C00087975000819
:10004000E14D0008E14D0008E14D0008E14D0008D8
:10005000E14D0008E14D0008E14D0008E14D0008C8
:10006000E14D0008E14D0008E14D0008E14D0008B8
:10007000E14D0008E14D0008E14D0008E14D0008A8
:10008000E14D0008E14D0008E14D0008E14D000898
:10009000E14D0008E14D0008E14D0008E14D000888
:1000A000E14D0008E14D0008E14D0008E14D000878
:0C00B000E14D0008E14D0008E14D0008A2
:1000BC0002B4714649084900095649008E4402BCF5
:1000CC007047C04602B4714649084900095C4900B2
:1000DC008E4402BC7047C046002934D00123002254
:1000EC0010B488422CD301242407A14204D28142AB
:1000FC0002D209011B01F8E7E400A14204D28142BB
:10010C0002D249005B00F8E7884201D3401A1A4337
:10011C004C08A04202D3001B5C0822438C08A0426E
:10012C0002D3001B9C082243CC08A04202D3001B24
:10013C00DC082243002803D01B0901D00909E3E79E
:10014C00100010BC704701B5002000F05FF802BD34
:10015C000029F8D003B5FFF7C1FF0EBC4243891A42
:10016C001847C046002941D010B404004C40A446A6
:10017C0001230022002900D54942002800D5404225
:10018C0088422CD301242407A14204D2814202D2FA
:10019C0009011B01F8E7E400A14204D2814202D21A
:1001AC0049005B00F8E7884201D3401A1A434C0817
:1001BC00A04202D3001B5C0822438C08A04202D34D
:1001CC00001B9C082243CC08A04202D3001BDC0875
:1001DC002243002803D01B0901D00909E3E71000D2
:1001EC006446002C00D5404210BC704701B500207D
:1001FC0000F00CF802BDC0460029F7D003B5FFF79C
:10020C00B3FF0EBC4243891A1847C0467047C0461C
:10021C008446100062468C461900634600E0C046D6
:10022C001FB501F095FC002801D40021C8421FBD68
:10023C0010B501F0D5FB4042013010BD10B501F0F6
:10024C0087FC002801DB002010BD012010BDC0463A
:10025C0010B501F07DFC002801DD002010BD01204F
:10026C0010BDC04610B501F0FDFB002801DC0020DC
:10027C0010BD012010BDC04610B501F0F3FB0028E5
:10028C0001DA002010BD012010BDC04684460800D4
:10029C006146FFE71FB502F018FC002801D40021CD
:1002AC00C8421FBD10B502F09BFB4042013010BD8F
:1002BC0010B502F00AFC002801DB002010BD012063
:1002CC0010BDC04610B502F000FC002801DD002076
:1002DC0010BD012010BDC04610B502F0A8FB0028CF
:1002EC0001DC002010BD012010BDC04610B502F08D
:1002FC009EFB002801DA002010BD012010BDC04675
:10030C001C2101231B04984201D3000C10391B0A39
:10031C00984201D3000A08391B09984201D30009FD
:10032C00043902A2105C40187047C0460403020254
:10033C0001010101000000000000000041420840E2
:10034C001C2101231B04984201D3000C10391B0AF9
:10035C00984201D3000A08391B09984201D30009BD
:10036C00043902A2105C401A7047C0461B1C1D1DAC
:10037C001E1E1E1E1F1F1F1F1F1F1F1F002B15D1F0
:10038C00002A13D1002906DB01DC002806D000204E
:10039C00C043410802E080210906002007B402484E
:1003AC0001A14018029003BD65FEFFFF03B468462F
:1003BC0001B5029802F0FCFA019B9E4602B00CBCFF
:1003CC007047C046002B11D1002A0FD1002900D153
:1003DC00002802D00021C943080007B4024802A13A
:1003EC004018029003BDC04625FEFFFF03B46846CB
:1003FC0001B5029802F06DFA019B9E4602B00CBC4E
:10040C007047C046084A43081340C01A0200074B05
:10041C00800818401A40121813099B18044A054802
:10042C0013405843000E70475555555533333333ED
:10043C000F0F0F0F01010101D0B500220B4B06006D
:10044C000F0001F0FDFB02F0B1F9040002F060F9BD
:10045C000022074B01F0F4FB02000B0030003900C6
:10046C0001F018FE02F0A2F92100D0BD0000F03D11
:10047C000000F0414A02F8B543024400C50F500A8F
:10048C0084464800240E000E5F0AC90F9B0992098E
:10049C00261A8D4200D09EE0002E42DD8021C90438
:1004AC0000281ED1002A0AD0661E012C05D19B18EB
:1004BC0001340B4246D1013C01E0FF2C14D15A0708
:1004CC0004D00F221A40042A00D004335A0100D45D
:1004DC002EE101340026FF2C19D09D4EDB081E4066
:1004EC0015E0FF2CEBD00A431B2E01DD0133E6E7B0
:1004FC002020801B11008240F140501E82410A4393
:10050C009B185A01DBD501340026FF2C1AD1FF238E
:10051C00E005DB057602760A18403043ED072843E8
:10052C00F8BD002E2ED08026011BF604002C14D111
:10053C00002B00D1F3E04C1E01290AD19B18022498
:10054C003342B8D0012283491A405B080B40134355
:10055C00B5E7FF2906D11300AEE0FF2800D1E0E09B
:10056C000C0033431B2C02DD531C0400A7E71900BD
:10057C002026E140341BA3405C1EA3410B43040026
:10058C009B18BEE7FE20611C01421ED1002C0DD130
:10059C00002B00D1C7E0002A00D190E79B185A012C
:1005AC0000D48CE76C4A13400C0088E7002BD2D0A7
:1005BC00FF24002A00D182E78023DB039F4202D371
:1005CC009C4500D26746FB0076E00C00FF299ED0CC
:1005DC009B185B0873E7002E25DD00281CD1002A30
:1005EC0000D16CE7661E012C06D19B1A5A0100D46F
:1005FC0065E79B019E0975E0FF2C00D15FE70121A7
:10060C001B2E07DC2020801B11008240F140501E65
:10061C00824111435B1AE9E7FF2C00D14FE780219F
:10062C00C9040A43EBE7002E25D0051B002C0DD185
:10063C00002B08D06E1E012D03D10D00D31A0134EE
:10064C00D4E7FF2D08D113002C0021E0FF286CD03B
:10065C0080242E00E404234301241B2E07DC2025D8
:10066C00AD1B1C00AB40F4405D1EAB411C43131B87
:10067C000D000400BAE7FE26601C30422DD1002C80
:10068C0014D1002B06D125002600131E00D13EE705
:10069C000D0014E7002A00D111E79E1AD31A70013D
:1006AC00F6D4331E00D00AE7350030E7002B05D115
:1006BC00002A49D013000D00FF2400E7FF24002A74
:1006CC0000D1FCE68023DB039F4200D27BE79C45F4
:1006DC0000D378E767460D0075E79E1A700115D5B3
:1006EC000D00D61A3000FFF70BFE3300053883409F
:1006FC00844210DC2022001B0130121A1900934096
:10070C00C1405A1E934100240B43D8E6002EE9D178
:10071C0035003400FBE6104A241A1340CFE61300D0
:10072C0042E7130021E71300C9E613000400AFE70A
:10073C00DE08FF2C00D0EAE6002E00D1E7E680238D
:10074C00DB03FF241E43E2E680261500F603F6E7E2
:10075C00FFFF7F1FFFFFFF7DFFFFFFFBF0B5C30F08
:10076C0085B0440245000F1C640A2D0E03930293BE
:10077C000AD0FF2D3BD08023E400DB041C43002374
:10078C007F3D019500930EE0012301940093002C12
:10079C0009D02000FFF7B4FD431F9C4076235B4239
:1007AC001B1A019300957D027E006D0A360EFF0F19
:1007BC00002E23D0FF2E2ED08023ED00DB041D4312
:1007CC0033007F3B002201980399C31A00987940AB
:1007DC008000104301380E2823D8FFF773FC4D9985
:1007EC0073999299734D4D92736161615300022319
:1007FC0001950093002CD6D00133C3E72B000122C6
:10080C00002DE0D02800FFF77BFD431F9D40762391
:10081C005B421B1AD6E733000222002DD3D00132E3
:10082C00D1E764016D01AC4228D31A200122641B6C
:10083C000126270052006400002F01DBA54201D8DD
:10084C00641B324301380028F3D1601E84411443E9
:10085C0018007F30002838DD620704D00F222240B8
:10086C00042A00D00434220103D5803318002B4A0B
:10087C001440E508FE281DDD00250FE01B2000229A
:10088C00013BD5E78023DB031C4203D01D4201D181
:10089C002C00029780250299ED032543FF2009E0E7
:1008AC000399009A022AE7D0032A2FD000252800AA
:1008BC00012ACDD16D026D0AC0052843C907084332
:1008CC0005B0F0BD2C003900ECE701220025121A0E
:1008DC0028001B2AEEDC9E3325009C40D540631E6D
:1008EC009C4125436B0704D00F232B40042B00D0D5
:1008FC00043580232800DB0418401D420BD1ED0881
:10090C00D8E780240023E4030293C3E70291C1E7F4
:10091C0000252800CEE700250120CBE7FFFFFFF7DD
:10092C00F0B5C30F85B04702440002917F0A240E34
:10093C0003930AD0FF2C71D080227F3C2600002329
:10094C00FF00D204174301930CE001233E1E0193D8
:10095C0008D03800FFF7D4FC7626431F9F40764220
:10096C00361A0194029B5C025D00DB0F640A2D0EAB
:10097C0002935AD0FF2D64D080232800E400DB04BE
:10098C001C437F3800230299039A4A40811901982D
:10099C008C46850001311D430A2D00DD78E0022DC7
:1009AC0055DC013D012D63D9250CA4B226003B0C6E
:1009BC00B8B246435C4368436B4300191F00330CC9
:1009CC001B189C4202D9802040023F181804B6B272
:1009DC008619B401601E84411B0CB60EDB1934431E
:1009EC009B011C431B0168D5012360081C40044378
:1009FC0008007F30002862DD630704D00F232340FA
:100A0C00042B00D00434230103D5803108003E4B65
:100A1C001C40E508FE2833DD00254CE002232600AF
:100A2C000193002F9ED001338DE720000123002C71
:100A3C00A9D0FFF765FC431F9C4076235B42181A34
:100A4C00A0E728000223002C9DD001339BE7012056
:100A5C00A840A6250600ED002E4028421DD1902569
:100A6C00AD00284247D1B93DFF3D28429CD0029AA7
:100A7C00022BD1D0032B42D000252800012BB7D15B
:100A8C006D026D0AC0052843D207104305B0F0BDB6
:100A9C00039A0F2D04D00B2DE9D03C00019BE7E706
:100AAC008023DB031F4203D01C4201D12700029A92
:100ABC008025ED033D43FF20E2E7614698E70123E3
:100ACC0000251B1A28001B2BDADC9E3125008C40DC
:100ADC00DD40631E9C4125436B0704D00F232B4044
:100AEC00042B00D0043580232800DB0418401D4261
:100AFC0007D1ED08C4E780273200FF03D8E72700B1
:100B0C00D6E700250120BBE7FFFFFFF7F0B5460253
:100B1C00730A85B001930393DA004B024400C50FAE
:100B2C00580A02904800240E000EC90F9B09FF289A
:100B3C001DD1FF277F42BC46A444002B0BD00F00D5
:100B4C008D4200D0D8E06146002900D182E0002C13
:100B5C0073D1040061E001274F40BD4200D0D3E0C7
:100B6C006146002976D0002CF3D0FF2416E0012733
:100B7C00BC464F40211ABD4200D095E0002942DD11
:100B8C008026F604002820D1002B1CD0611E644561
:100B9C0017D19B18022433422ED164465A0704D035
:100BAC000F221A40042A00D004335A0100D432E137
:100BBC0001340026FF2C00D1E4E09C4EDB081E40E3
:100BCC00E0E0FF2C04D11300E8E7FF2CFBD033430B
:100BDC001B2901DD531CE1E718002026C840711ABF
:100BEC008B40591E8B4103439B185A01D6D50134B7
:100BFC000026FF2C00D1C5E001228D491A405B086C
:100C0C000B401343CAE7002924D0011B002C03D04E
:100C1C008024E40422430DE00C00002ABED0611EA7
:100C2C00012C05D19B1801345A01E5D4013CB5E7E0
:100C3C00FF2CB3D01B2902DD01330400AEE71400F6
:100C4C002026CC40711A8A40511E8A4122439B189F
:100C5C000400CAE7FE20611C01421ED1002C0AD1FF
:100C6C00002A9BD0002BAED09B185A0196D5714A06
:100C7C000C00134092E7FF24002A8FD0002BA2D047
:100C8C008023019ADB039A4204D3029A9A4201D23E
:100C9C003D000392039BDB0067E70C000026FF2955
:100CAC0070D0D3185B0879E7002935DD00281CD1FA
:100CBC00002B88D0611E012C07D16446D31A5A012F
:100CCC0000D46BE79B019E0988E0FF2C00D17AE7EA
:100CDC0001201B2907DC18002026C840711A8B4004
:100CEC00591E8B411843131AE9E7FF2C00D16AE710
:100CFC008020C0040343EBE76646002E36D0002C60
:100D0C0019D004000D0049E7614600292ED0002CB3
:100D1C0014D004003D0041E7002927D0061B002C0D
:100D2C001FD13D003400002A00D137E7661E012C8C
:100D3C0006D19B1AC3E70D000400F4E73D00FBE766
:100D4C00FF2C00D12AE701211B2E07DC2024A41B39
:100D5C001100A240F140541EA241114304005B1A41
:100D6C00ADE78021C9043D000A43ECE7FE20611C7D
:100D7C0001422ED1002C1DD1002A0ED125002600B7
:100D8C00002BC7D1FF23E005DB0576021840760A5D
:100D9C003043ED07284305B0F0BD002B00D112E71E
:100DAC00D61A710101D59B1AB4E7331E00D0F5E6B3
:100DBC002500E7E7002A07D13D00002B00D0D4E640
:100DCC0080261D00F6032BE0002B00D058E7130003
:100DDC00CBE6D61A710115D53D009E1A3000FFF7EF
:100DEC008FFA330005388340844210DC2022001B2C
:100DFC000130121A19009340C1405A1E934100242D
:100E0C000B43CBE6002EE9D135003400BAE7094A92
:100E1C00241A1340C2E6DE08FF2CB3D1002EB1D049
:100E2C008023DB03FF241E43ACE7C046FFFF7F1F7C
:100E3C00FFFFFF7DFFFFFFFB41024300C20F490A8A
:100E4C0000201B0E7E2B03DD9D2B02DD084BD018E2
:100E5C007047802000040843952B05DD963B984095
:100E6C00002AF5D04042F3E79621CB1AD840F7E799
:100E7C00FFFFFF7F70B503000400051E0ED0C217E4
:100E8C0085185540C40F2800FFF73AFA9E231B1A09
:100E9C00962B0ADC08282CD0083885406A02D80525
:100EAC00520A1043E407204370BD992B1CDD052228
:100EBC002900121AD14002001B3295402A00551EFF
:100ECC00AA4111430D002A000B4E3240690704D091
:100EDC000F212940042900D00432510102D59F234F
:100EEC0032401B1AD508D9E7421F0528EBD0954094
:100EFC00E9E79623D2E7C046FFFFFFFBF0B587B0CA
:100F0C0004920593CB0F0193059B0D034C006D0AC6
:100F1C00410F5F0029431D037B0D0293059B6D0A56
:100F2C00DB0F0393049B049A5B0F2B43019E029DE2
:100F3C00039F640DC000D200651BBE4200D02CE1A3
:100F4C00BB4EB446002D00DC70E0029E002E1ED17C
:100F5C001E00164300D19BE26E1E012D13D1821888
:100F6C0082428041C91840420918012410000B022A
:100F7C0000D472E00224AF4B42080B400121014027
:100F8C000A43D80706E165451CD1A94C65E06445C8
:100F9C0063D0382D47DC8026360433432E001F2EB9
:100FAC002FDC20251F00AD1BAF4002953D00170024
:100FBC00F7402F43029DF340AA40551EAA411D0045
:100FCC00174303E00127029D382EE8DD3F188742C6
:100FDC00804169184042091838000B023DD50025A4
:100FEC0001342F006445C6D1934B24051C403B03B0
:100FFC001B0B1C43019B2800DB071C43210007B083
:10100C00F0BD35001F00203DEF403D000027202E95
:10101C0003D04037BF1BBB401F0017437B1E9F41B3
:10102C002F430025D2E700250127CFE7002D6FD0F5
:10103C00029D2E1B002C30D10D00054300D121E266
:10104C00751E012E24D1801890429241C91852422B
:10105C00891801340B0200D58CE7430709D00F2304
:10106C000340042B05D0031D8342804140420918E4
:10107C0018006F4B0A0200D410E2002501342F0037
:10108C009C42B1D06B4BC0080B405D070543F2E1AD
:10109C0066451DD11900100077E7029C6445F9D014
:1010AC00382E32DC80243500240421431F2D1ADC19
:1010BC0020240E00671BBE4034000600B840EE40F2
:1010CC0034430600E940701E864126430C0002E0C2
:1010DC000126382DEADDB01890429241E4185242B4
:1010EC00A118029C79E72C000E00203CE64034004D
:1010FC000026202D03D04036761BB1400E0006434F
:10110C00711E8E4126430024E5E700240126E2E708
:10111C004A4F661C3E4230D10D000543002C12D1C3
:10112C00002D00D1B1E11D00154396D082188242EA
:10113C008041C9184042091810000B028DD53D4B57
:10114C001940340089E7002DA4D01D0064461543D6
:10115C0083D080254C07C008C9082D0320432942A1
:10116C0006D0DC082C4203D12100D0085B071843C1
:10117C00CB00410F1943C00007E734002F00664530
:10118C0000D131E7821882428041CB1840421B18B3
:10119C00D8075208104359085FE7002D65DD029E01
:1011AC00002E25D11E00164300D171E16E1E012DBB
:1011BC000ED1821A90428041C91A4042091A012468
:1011CC0010000B0200D448E7490206004D0A07E163
:1011DC00174FBD4200D1D8E60125029F382E11DDF4
:1011EC00451BA8428041C91B4042091A2800E8E768
:1011FC000F4EB44200D130E7382D33DC8026360454
:10120C0033432E001F2E1BDC2027BD1B02951D0017
:10121C00029FF340BD40AC4615006746F5403D4388
:10122C00029FBA40571EBA411F001543D8E7C0466B
:10123C00FF070000FFFF7FFF0000F07FFE070000AC
:10124C0035001F00203DEF403D000027202E03D02D
:10125C004037BE1BB3401F0017437B1E9F413D43CD
:10126C000027BDE700270125BAE7002D59D0029DC4
:10127C002E1B002C16D10D0005430FD0751E012E10
:10128C0009D1101A82429241591A039B5242891A6F
:10129C000193013495E78E4FBE4221D11900100005
:1012AC00340050E08A4C029DA54200D1F2E0382E69
:1012BC0034DC80243500240421431F2D1DDC202622
:1012CC000C00761BB440A4460400B040EC406746CA
:1012DC00461EB041E9403C43044326000C0002E0AA
:1012EC000126382DE9DD901B824292411C1B039B89
:1012FC005242A11A0193029C63E72C000E00203C81
:10130C00E6400024202D03D04034641BA1400C0087
:10131C000443611E8C4126430024E4E7002401268B
:10132C00E1E76C4E651C35424AD10D001F000543A8
:10133C001743002C23D1002D08D13D1E019700D15D
:10134C0052E619001000039B019386E6002F00D192
:10135C0083E6861AB042BF41CD1A7F42ED1B2F02A5
:10136C0006D5101A82429241591A5242891AEAE75A
:10137C0037002F4300D1A5E0290030006DE6002D89
:10138C0007D1002F00D194E01900039B10000193AA
:10139C00FBE5002F00D1F8E580254C07C008C908F3
:1013AC002D032043294200D1E2E6DC082C4200D078
:1013BC00DEE65B07D0081843039B21000193D7E6B8
:1013CC00861AB042BF41CD1A7F42ED1B2F0228D5A1
:1013DC00161AB24292415B1A52429D1A039B019318
:1013EC00002D25D02800FEF78BFF0300083B2022A0
:1013FC003100D21A9D40D140294335009D409C427A
:10140C003BDC1A1B0132202308009B1A2C009D4048
:10141C009840D4406B1E9D41D1402043284300246A
:10142C001BE637002F43DBD13D003C000197DBE589
:10143C003000FEF765FF030018331F2BD7DD31009A
:10144C00083881409C4212DC1B1B5A1C1F2ADADD17
:10145C000C001F3BDC402800202A03D040239B1AA1
:10146C0099400800431E984100212043D7E7E41A15
:10147C00194B0B405D07DF08B6E5E41A164B280044
:10148C001940EAE5190010005BE619001000E4E5CC
:10149C002C00E2E519001000029C54E74A07C7082B
:1014AC0017433D00C9089C420FD10D4304D12F00B6
:1014BC009AE58021019709033D0080273F03044CE6
:1014CC000F4391E53D0001978EE50F008CE5C0467A
:1014DC00FF070000FE070000FFFF7FFFF0B589B09B
:1014EC00009201930D03CA0F4B00060004002D0B54
:1014FC005B0D0692059244D05B4A93426AD0420F30
:10150C00ED001543802212042A430292574AC4006C
:10151C009F180026019B019A1D03D20F5B000098B7
:10152C002D0B5B0D079265D04F4A934200D188E09A
:10153C00ED004E49420F2A4380255B189C462D0432
:10154C001543C2000021079B06985840634604903F
:10155C00B0000843FB1A013803930E2800D989E028
:10156C0001F0F6F87E002802D40128021E0228029F
:10157C00D4017E007E001E02D401C701C701C70141
:10158C00B5012B00034302932CD0002D15D028005D
:10159C00FEF7B6FE010003000B391D22521A310072
:1015AC001800D140083885400A002A433500854090
:1015BC0002922F4F2C00FF1AABE7FEF7A1FE0100A1
:1015CC000300153120331C29E7DD32000838824036
:1015DC000292EEE702002A43029207D01F00032674
:1015EC00029597E7029C0126270093E71F0002262D
:1015FC00029C8FE7009A2A432AD0002D15D0280090
:10160C00FEF77EFE010002000B391D2310005B1A51
:10161C00009908388540D9402943009D8540144BDA
:10162C009B1A9C462A000D008CE7FEF769FE010010
:10163C000200153120321C29E7DD00990838814061
:10164C00EDE7009A2A4307D002009C4603217AE773
:10165C0015009446012176E715009C46022172E79D
:10166C0000231C00004A22E1FF07000001FCFFFFE1
:10167C000DFCFFFF029B9D4204D300D022E1A2424D
:10168C0000D91FE1029BE607D907630819430C0038
:10169C00029B5B08029313022D02170E00932B0C76
:1016AC002F4307930799BBB202980593FEF750FDA1
:1016BC00BBB243430A04210C050011438B4207D9EA
:1016CC00C919013D8F4203D88B4201D9851EC91916
:1016DC00C81A0799FEF73CFDBAB242430904A4B2FA
:1016EC0003000C43A24207D9E419013BA74203D8DB
:1016FC00A24201D9831EE4192D041D43A41A009B98
:10170C00009A1B0C12040593120CABB206925A43AE
:10171C0006980292059A290C484353435143029A66
:10172C001B18120C94466344984202D98022520230
:10173C008918029A180C12041B04120C40189A18DF
:10174C00844203D302951ED196421CD26B1E029387
:10175C00009BF6189E429B415B42DB19E418A742A2
:10176C0003D310D1009BB3420DD8A04202D80AD1AA
:10177C00B24208D9AB1E0293009BF6189E429B41C5
:10178C005B42DB19E418B51AAE42B641201A764218
:10179C00801B874200D1BEE00799FEF7D9FCBBB293
:1017AC0043430A04290C040011438B4207D9C9197D
:1017BC00013C8F4203D88B4201D9841EC919C81A27
:1017CC000799FEF7C5FCBBB243430904ADB2020056
:1017DC000D43AB4207D9ED19013AAF4203D8AB42E6
:1017EC0001D9821EED19ED1A2304059E13430699A7
:1017FC0006981C0C9AB251436043724374431218FE
:10180C000E0CB218904202D9802040022418100C01
:10181C0009041204090C00195118854204D31C0048
:10182C00854219D1002919D07D195C1EBD420ED3F9
:10183C00854203D310D1009A8A420AD29C1E009B87
:10184C005A009A429B415B42DB19ED18009285428B
:10185C0002D1009B994201D001231C43039B5B4A9C
:10186C009A18002A5ADD63070BD00F232340042B50
:10187C0007D0231DA342A4410299644209191C00FC
:10188C000291029BDB0108D5514B029A1A4080232E
:10189C00DB009C460292039A62444E4B9A4200DD56
:1018AC008CE0029BE4085B071C43029BDB081B03D8
:1018BC0012051B0B1343049A2000D2071343190083
:1018CC0009B0F0BD039B0026013B0393E3E68023A4
:1018DC0002991B03194205D01D4203D11400079B2A
:1018EC00029505938023029A1B031343059A0492D5
:1018FC00B8E63100069B049302295FD0032956D029
:10190C000129ABD1002423002200D0E7079B14004F
:10191C0002950493F0E7012464429FE70121891AA0
:10192C003829EFDC1F2926DC2B4A039B94466344A1
:10193C0020009C40029AC8409A4023000243581E43
:10194C0083411A43029B1400CB40620709D00F223B
:10195C002240042A05D0221DA242A44164421B1934
:10196C00140080211A0009040A400B4229D1E10815
:10197C005C070C439AE71F235B429B1A029ADA40DE
:10198C000023202906D01549039B8C4602996344F9
:10199C0099400B001C43631E9C4100231443D4E765
:1019AC0000231C00059380231B0302939AE7049BDE
:1019BC00059397E700231C001A0078E70024230006
:1019CC0050E6002301221C0071E7C046FF03000013
:1019DC00FFFFFFFEFE0700001E0400003E04000097
:1019EC00F0B50D0087B000920193040004900198AB
:1019FC00EB0F4600C70F1A4803938446009B09035C
:101A0C000593019B6A001B030120090B520D1B0B54
:101A1C00760D624503D066450DD107B0F0BD9642F8
:101A2C00FBD1009A0B4313432343F6D1039BD81BE2
:101A3C00431E9841F1E70120B242EED19942ECD11C
:101A4C00049B059EB342E8D1039BBB4206D0002AFF
:101A5C00E3D121434B1E99410800DEE70020DCE76F
:101A6C00FF070000F0B587B0009001911D00009BAE
:101A7C0014000493019B29031A03130B334A039399
:101A8C009446019B68005F007B0D0293029A019BB8
:101A9C000594DB0F090B400DEE0F624512D1009A35
:101AAC00039F17434FD1029A904204D00120002B80
:101ABC0006D0023804E02143081E44D1B342F5D1CC
:101ACC0007B0F0BD604511D121433CD1029A002AE8
:101ADC0004D0B342EAD1181EF2D105E0009A039962
:101AEC001143F6D1301EEBD101202DE0029A002AD1
:101AFC0017D00028DAD0B342D8D1029A8242D5DC72
:101B0C00029A8242E7DB039A8A42CFD8E3D1049A45
:101B1C0005998A42CAD8049A059900208A42CFD2E4
:101B2C00D9E7009F039A1743002802D0002FD9D081
:101B3C00CFE70C4304D0002FD4D0B342E3D0B5E7A9
:101B4C00002FBDD0B2E702204042B9E7FF070000EA
:101B5C00F0B587B0009001911D00009B1400049318
:101B6C00019B68001A03130B344A03939446019BA0
:101B7C0005945F007B0D0293019B029AD90F2B03F6
:101B8C001B0B400DEE0F624513D1009A039F1743B8
:101B9C0052D1029A904204D00120002907D0023879
:101BAC0005E00220234302D11800B142F4D107B062
:101BBC00F0BD604513D102202343F8D1029B002BCA
:101BCC0004D0B142E8D1081EF1D105E0009B039A84
:101BDC001A43F6D1301EEAD101204042E7E7029ABF
:101BEC00002A17D00028D7D0B142D5D1029A824210
:101BFC00D2DC029A8242E6DB039A9A42CCD8E2D13A
:101C0C00049B059A9342C7D8049B059A00209342E3
:101C1C00CDD2D8E7009F039A1743002802D0002F9B
:101C2C00D8D0CEE71C4304D0002FD3D0B142E3D0A0
:101C3C00B2E7002FBBD0AFE70220B8E7FF070000E8
:101C4C00F0B58BB0009201930D034B00CA0F060048
:101C5C002D0B5B0D059200D114E1CF4A934200D1BC
:101C6C0038E1ED00420F2A4380252D041543CB4A61
:101C7C00C4009B18039300230293019B00981E033E
:101C8C005A00DB0F360B520D049300D131E1C24BDD
:101C9C009A4200D153E1430FF60033438026BF49EB
:101CAC0036041E43C300501800220599049F794046
:101CBC000091039941180691013103910299880012
:101CCC0010430A2800DD73E1022800DD46E10138EB
:101CDC00012800D855E1190C9BB202911900220C75
:101CEC00A4B2514320008C46029F029958435143A1
:101CFC00674305916744010CC91904908C4505D9BB
:101D0C00802040028446059F67440597080C844652
:101D1C006846008A090409180991310CB6B204917D
:101D2C0030002100049F50437C4371437A432418B4
:101D3C000F0C3C19A04202D9802040021218200C32
:101D4C008218240489B20792621808920899624694
:101D5C008C46290CADB22800029F58436F434B436D
:101D6C0062449446029CFF18020CD2194C439342D5
:101D7C0002D980235B02E418130C1B1902932B006D
:101D8C0080B2120412180498734345434E434143E6
:101D9C00A8191D0C2D18AE4202D98020400209183A
:101DAC00059C6046A446089C6044A042BF41801834
:101DBC00904292412E049BB2F618079B7F42F61874
:101DCC0053420493029BF4199C46A4446346049A20
:101DDC00BC42A4419B18079A64429642B641029AAF
:101DEC00764234432D0C64199445AD41049A6D42EE
:101DFC0093429241524215436419099A6418410264
:101E0C0011434A1E9141C00DDE0D640201435B0279
:101E1C0026430B43E40100D4DFE001215A080B40B8
:101E2C001A43F307CE401343039A5D495218002A14
:101E3C0000DCD5E0590709D00F211940042905D041
:101E4C00191D99429B415B42F6180B00F10106D516
:101E5C008021C9008C46534A1640039A6244524969
:101E6C008A4200DD09E17407DB081C43F608130500
:101E7C003603009A360B3343D20713432000190064
:101E8C000BB0F0BD2C0004432BD0002D16D0280035
:101E9C00FEF736FA040002000B3C1D2330001B1B1E
:101EAC001100D84008398D4003002B4335008D407C
:101EBC003E492C008A1A1D000392DCE6FEF720FA3C
:101ECC0004000200153420321C2CE6DD33000838E7
:101EDC008340EDE704002C4307D003930400032355
:101EEC00CAE6250001230394C6E6039325000223CA
:101EFC00C2E6009B334329D0002E14D03000FEF7ED
:101F0C00FFF9010003000B391D221800521A009929
:101F1C0008388640D1403143009E86402348C01A81
:101F2C0033000E00C0E6FEF7EBF90100030015319B
:101F3C0020331C29E8DD009908388140EEE7009B2E
:101F4C00334307D0030010000322AEE61E00180036
:101F5C000122AAE610001E000222A6E60121814001
:101F6C00A6200F00C0000740014227D1902080001E
:101F7C00014277D1B938FF38014200D1ABE6049960
:101F8C000091022A79D0032A75D0012A00D04BE7A0
:101F9C000026340032006AE7FF07000001FCFFFF57
:101FAC00FF030000FFFFFFFEFE0700000DFCFFFF1C
:101FBC00059900910F2805D00B28E0D02E002300A6
:101FCC00029ADEE78022120315424FD016424DD101
:101FDC003500049A00921C0048E0069A039223E70D
:101FEC000120801A3828D3DC1F2827DC2649039AC5
:101FFC008C461C006244310093409140C4401A004E
:10200C002143531E9A410B00C64013435A0709D073
:10201C000F221A40042A05D01A1D9A429B415B429A
:10202C00F618130080213000090408400E4227D115
:10203C007407DB0802001C43F60818E71F2149420D
:10204C008A1A3100D1400022202805D00F48039A6B
:10205C00844662449640320013435A1E9341002634
:10206C000B43D3E780253C002D03009780263603D5
:10207C002E43074AFBE63500ADE700263400F8E7AF
:10208C00002601223400F2E61E0400003E0400008B
:10209C00FF070000F0B585B000920193CB0F0D0344
:1020AC000293019B4C006D0A410F29435D001E03F6
:1020BC006B0D9C46019B760ADD0F009B009A5B0F13
:1020CC003343BE4E640DC000D200B44523D11E0074
:1020DC0016430396039FBA4EA619002F0CD0029FED
:1020EC000095AF4200D0B5E1002E00D104E1002CE8
:1020FC0000D0BAE26446B8E001276F40029D009719
:10210C00BD4200D0AFE1002E00D1F5E0002CF1D0A3
:10211C00039908002FE00126754000956546029F43
:10212C00009E651BB74200D02EE1002D00DC76E04E
:10213C006746002F21D11F00174300D122E16F1EEB
:10214C00012D15D1821882428041C91840420918CC
:10215C00012410000B0200D496E00224994B420893
:10216C000B40012101400A43D807104359088BE06A
:10217C00924EB54222D1914C86E0904EB44200D1A1
:10218C0082E00026B4460136382D1ADC80262F005A
:10219C00360433431F2F31DC20251E00ED1BAE40CF
:1021AC00B44616000095FE4065462E43009DFB404C
:1021BC00AA40551EAA4116439C4602E00126382F20
:1021CC00E8DD3618864280416144404209183000EF
:1021DC000B0259D50026794B0134B4469C42BDD133
:1021EC00794B24051C4063461B031B0B1C43029BB1
:1021FC003000DB071C43210005B0F0BD3D001E0084
:10220C00203DEE400025202F03D04035ED1BAB4088
:10221C001D0015436B1E9D4100232E43CCE7002D62
:10222C006AD065462D1B002C1ED000240126382DAB
:10223C0012DC8024240421431F2D4BDC20240F00AE
:10224C000600641BA040A740EE4037430600E9405F
:10225C00701E86410C003E43B01890429241E41827
:10226C005242A1186446B3E72C000D00054329D057
:10227C00651E012C23D1801890429241C9185242FC
:10228C0089180B0200D568E7430709D00F230340D8
:10229C00042B05D0031D83428041404209181800CD
:1022AC000B0200D4E4E10026444B0134B4469C42BA
:1022BC0096D0444BC0080B405E070643CDE13F4E21
:1022CC00B44202D119001000DEE7382DB4DD002431
:1022DC000126C1E72C000E00203CE640340000260D
:1022EC00202D03D04036761BB1400E000643711EE4
:1022FC008E4126430024AFE7344E651C354233D162
:10230C000D000543002C11D1002DDBD01D00154311
:10231C00BAD0821882428041C91840420918100074
:10232C000B02B1D5274B01341940ADE7002D00D17C
:10233C009BE11C001443002C00D11CE74C07C00887
:10234C0020438024C9082403214208D0DD082542FB
:10235C0005D129005B07D0081843009B0293CB00E2
:10236C00410F1943C00006E7144CA54200D196E179
:10237C00821882428041CB1840421B18D807520861
:10238C00104359082C007FE7002D76DD6646002EA1
:10239C002ED11F001743F5D06F1E012D18D1821AB4
:1023AC0090428041C91A4042091A012410000B02C4
:1023BC0000D469E7490206004D0A02E1FF0700005C
:1023CC0001F8FFFFFFFF7FFF0000F07FFE0700001A
:1023DC00B74EB54200D1CEE60126382F15DD861B4F
:1023EC006346B0428041C91A4042091A3000DEE708
:1023FC00AF4EB44200D147E70026B4460136382D23
:10240C00EDDC80262F00360433431F2F11DC2025F2
:10241C001E00ED1BAE40B44616000095FE4065460E
:10242C002E43009DFB40AA40551EAA4116439C46D4
:10243C00D5E73D001E00203DEE400025202F03D0A7
:10244C004035ED1BAB401D0015436B1E9D41002319
:10245C002E43ECE7002E67D0002C25D0190010007D
:10246C00934C029510E7002E5ED0002C1FD00399E0
:10247C008F4C0800009B029306E7002D54D0654654
:10248C002D1B002C1FD1009C02942C000D00054329
:10249C0000D117E7651E012C0CD1101A8242924113
:1024AC00591A5242891A82E702956446EEE7009C5B
:1024BC000294FAE77E4EB44200D103E7382D09DDD1
:1024CC000021012614E0382D2BDC80242404214328
:1024DC00009C02941F2D13DC20240F00641B0600AB
:1024EC00A040A740EE40441EA041E9403E430643B5
:1024FC00901B82429241591A52426446891A56E7FD
:10250C002C000E00203CE6400024202D03D040344B
:10251C00641BA1400C000443611E8C410021264326
:10252C00E6E700990291CBE7624E651C354238D143
:10253C001D001543AC460D000543002C25D1002D84
:10254C0008D1614626000294002900D148E6190002
:10255C0010008FE76546002D00D195E6861AB04233
:10256C00BF41CD1A7F42ED1B2F0206D5101A8242B5
:10257C009241591A5242891A7CE733002B439C46EC
:10258C0000D18FE0290030007EE6002D07D1614696
:10259C0000297AD01900009B10000293EBE56446E9
:1025AC00C9E6861AB042BF41CD1A7F42ED1B2F02FD
:1025BC0028D5161AB24292415B1A52429D1A009BC0
:1025CC000293002D26D02800FDF79AFE0300083B4D
:1025DC0020223100D21A9D40D140294335009D4024
:1025EC009C423DDC1A1B0132202308009B1A2C0054
:1025FC009D409840D4406B1E9D41D14020432843C0
:10260C00002441E633002B439C46DAD11E001C000B
:10261C000293E5E53000FDF773FE030018331F2B22
:10262C00D6DD3100083881409C4212DC1B1B5A1C41
:10263C001F2AD9DD0C001F3BDC402800202A03D0C8
:10264C0040239B1A99400800431E984100212043C7
:10265C00D6E7E41A184B0B405E07DB089C46BFE537
:10266C00E41A154B280019400EE61900100082E5FB
:10267C004B07C00803439C460D4B6646C9089C4259
:10268C0013D10E4304D1B446AAE50291802109036B
:10269C0080231B030B436646054C9C46A0E5002695
:1026AC00034CF0E7260002949AE58C4698E5C04668
:1026BC00FF070000FE070000FFFF7FFF70B503005F
:1026CC0002000600051E11D0C21785185540C40F14
:1026DC002800FDF715FE0D4A121A0A280FDC0B23F1
:1026EC002E001B1A1530DE40854023003603360BB6
:1026FC0012053243DB071A432800110070BD0B385A
:10270C00854023002E000025F0E7C0461E04000083
:10271C0010B503000400021E0CD0FDF7F1FD0B4AAE
:10272C00121A0A280DDC0B2321001B1AD940153074
:10273C000B0084401B031B0B12051A4320001100D5
:10274C0010BD23000B3883400024F3E71E04000067
:10275C0003B47146490840004900095A49008E44A7
:10276C0003BC7047D0400B00D1409C46203AD3406C
:10277C0018435242634693401843704791400300FC
:10278C0090409C46203A9340194352426346D340B2
:10279C001943704710B5002903D1FDF7B1FD203066
:1027AC0002E00800FDF7ACFD10BDC04670B500227C
:1027BC000B4B04000D00FDF75FFD00280BD0084B00
:1027CC00002220002900FFF765FC00F00BF88023A5
:1027DC001B06C01870BD2000290000F003F8F9E7B3
:1027EC000000E0410B0070B5114E0C0349000200D3
:1027FC00240B0020490DDD0FB14204DD0D48814250
:10280C0002DD0D4BE81870BD8020400320430B4CBB
:10281C00641A1F2C08DC0A4EE240891988401043C8
:10282C00002DF0D04042EEE7064B5B1AD840F7E79C
:10283C00FE0300001D040000FFFFFF7F33040000B7
:10284C00EDFBFFFF13040000F7B5040C0D0091B273
:10285C000F0061438C460600019383B2100C5F435A
:10286C00444358433B0C60441B18994202D98021C5
:10287C0049026418019955437143180C04191B043F
:10288C00BFB24919D819091903B0F0BD10B5002809
:10289C0002D0FDF753FD013010BD70B500220023AE
:1028AC0004000D00FDF7CAFC00280BD080231B068A
:1028BC00E9182000FDF7C0FD002342428B411000B7
:1028CC00190070BD20002900FDF7B6FD02000B00B9
:1028DC00F5E7F0B506000F0015001C0085B08B4223
:1028EC0063D801D1824260D821002800FFF752FF43
:1028FC00390000903000FFF74DFF009B21001B1AA0
:10290C001A0028000393FFF739FF00900191B94298
:10291C0045D801D1B04242D8009B019C0120002136
:10292C00039AF61AA741FFF729FF04000D00039B39
:10293C00002B2BD0019B009ADB0750081843019BFE
:10294C005908039B9C46B9422CD801D1B04229D8D6
:10295C0032003B00121A8B41012692185B41002772
:10296C00B6185F4101235B429C446346002BEAD1BD
:10297C0030003900039AFFF7F5FE039AA4197D4144
:10298C0006000F00FFF7FAFE241A8D410A9B002B5C
:10299C0001D01E605F602000290005B0F0BD00244E
:1029AC000025C4E7B6197F41DCE700240025EDE7DC
:1029BC00F7B517001E0004000D0000F0D6F8020059
:1029CC000B000090019138003100FFF73DFF241AF5
:1029DC008D41089B009801991C605D6003B0F0BDAF
:1029EC0070B54A02440245004E00C30F640A012030
:1029FC002D0E520A360EC90FFF2D02D0FF2E07D115
:102A0C0070BDFF2EFCD12243FAD14B401800F7E7E2
:102A1C000120B542F4D19442F2D18B4205D0002D65
:102A2C00EED12000431E9841EAE70020E8E730B5DC
:102A3C004A0244024500C30F4800640A2D0E520A94
:102A4C00000EC90FFF2D0ED1002C38D1FF2804D059
:102A5C000120002B06D0023804E0002A2FD11000F0
:102A6C008B42F5D130BDFF280BD1002A27D1002D88
:102A7C0001D1002C1FD08B42EAD1002B1DD01800A5
:102A8C00F0E7002D0ED00028E2D08B42E0D1854239
:102A9C00DEDCF2DB9442DBD800209442E2D28342AB
:102AAC00EDD10AE00028E4D1002A02D1002CD9D0C3
:102ABC00CEE7002C06D1081ED4D1012000E0022064
:102ACC004042CFE78B42E5D0C2E730B54A02440220
:102ADC004500C30F4800640A2D0E520A000EC90FA0
:102AEC00FF2D0FD1002C3BD1FF2804D00120002B4F
:102AFC0007D0023805E00220002A02D110008B42D8
:102B0C00F4D130BDFF280CD1FD38002AF9D1002DAD
:102B1C0001D1002C1FD08B42E8D1002B1DD0180006
:102B2C00EFE7002D0ED00028E0D08B42DED185429D
:102B3C00DCDCF2DB9442D9D800209442E1D283420F
:102B4C00EDD10AE00028E4D1002A02D1002CD8D023
:102B5C00CCE7002C06D1081ED3D101204042D0E78F
:102B6C000220CEE78B42E5D0C0E7F0B504000D00A3
:102B7C001000190085B0002D11DB002B00DA82E06B
:102B8C0026002F0014001D00BD4204D800D080E0A8
:102B9C00B44200D87DE00020002105B0F0BD002338
:102BAC006242AB41002968DB16001F0004000D00D7
:102BBC00BD4278D801D1B44275D801235B422900BB
:102BCC0020000393FFF7E6FD390002903000FFF779
:102BDC00E1FD029B29001B1A1A0020000293FFF74B
:102BEC00CDFD04000D00B94255D801D1B04252D8E8
:102BFC0001200021029AFFF7C1FD361BAF41009066
:102C0C000191029B002B2CD0EB0760081843029B10
:102C1C0069089C4601240025B94241D801D1B04233
:102C2C003ED832003B00121A8B4192185B411219AC
:102C3C006B4116001F0001235B429C446346002B32
:102C4C00EAD1009C019D029A30003900FFF78AFD01
:102C5C00029AFFF793FDA4197D41241A8D4100942B
:102C6C00019500980199039B002B00D195E7030077
:102C7C000C0000215842A1418FE716001F000025CF
:102C8C0044428D4180E726002F00002544428D41AF
:102C9C008EE7002393E70022002300920193B0E714
:102CAC00B6197F41C7E700200021E0E70023C25C92
:102CBC000133002AFBD1581E7047000070B5050087
:102CCC00FFF7F4FF00240600B44200DB70BD295D61
:102CDC000248013483685B689847F5E754B90008EB
:102CEC0010B5184808F085FA002804D1164807F0EA
:102CFC0076F8002010BD1548FFF7E0FF00211448BE
:102D0C0006F073FF1348FFF7D9FF0021104806F0B7
:102D1C006CFF1148FFF7D2FF0021104806F065FF49
:102D2C000F48FFF7CBFF00210C4806F05EFF0D4863
:102D3C00FFF7C4FF0021094806F057FF0A48FFF7C8
:102D4C00BDFFD6E754B90008FABF000811C000084F
:102D5C008813000016C0000825C00008A0860100DA
:102D6C003FC0000885C0000897C00008F0B597B0B8
:102D7C00059304230B921A400B9B0A92DA08072343
:102D8C001A40013207001C9D03910D92820700D05E
:102D9C00C6E1041D002804D0072909D81C20404294
:102DAC0054E1039A1A401300141D0822D31A0393FA
:102DBC00059B0426013B0693002309930C93049373
:102DCC000293013B07930196002F01D0059B2360D2
:102DDC000D9B002B00DDF1E09D4B059A9A4203D32D
:102DEC009C4B9A4200D2E9E00B99E21B93088907AD
:102DFC0000D50DE1049A0F2A00D9BBE0002F00D1B9
:102E0C000EE104990EAA53540A00079912AB995477
:102E1C000C9B01330C93F4E008260196069B0133BE
:102E2C000693069B9878002800D105E1029B002BA5
:102E3C0008D12528F2D1079B013307930123029374
:102E4C000426EAE77A284AD84B280ED8472846D8D1
:102E5C0029282CD825283FD041D82028DED023384B
:102E6C0043425841C3B20293D8E74C382E2836D887
:102E7C00FDF71EF9D4353535353535353535353520
:102E8C003735353535353535356135373761616130
:102E9C00D437D235D435183718353579E63735353A
:102EAC003735E600002308930426029327E001221D
:102EBC0013002A38C0B2834067490B42AED1E221DD
:102ECC001800890508400B4235D1190011400291B8
:102EDC001342A3D0089013E0079B013B07930023F8
:102EEC00C1E70022069B08925B7802926C2B07D1FB
:102EFC000426069B01961B786C2B01D1B619019602
:102F0C00013CA0193100FDF7E7F870430400002FD5
:102F1C003BD0019B039ADB1B1B18934200D93DE766
:102F2C00089B002B41D1019B042B20D108CD0360C1
:102F3C000423043415E0072107358D4364188C43B2
:102F4C000CCD002F08D00131C91B039809198142FF
:102F5C0000D923E722606360002308260293330024
:102F6C00083401935AE7029B089300239CE7019BCA
:102F7C00082B01D0162012E7072307359D430CCDF3
:102F8C000260436008230834EBE7089B002B0CD14C
:102F9C00019B042B01D10435CAE7019B082BE9D115
:102FAC000735013B9D430835ECE7069B023306933E
:102FBC000D9B013B0D9308CD059305E70B9B9B07E0
:102FCC0022D50121E21B9308802080008242D1D2BD
:102FDC00049A0F2ACED8002F1CD00498DBB20EAA6C
:102FEC0013549C46079B12AA1354002900D10FE7D7
:102FFC0080226346524213430EAA1354099B013399
:10300C000993049B01330493069B0434013B07E7AB
:10301C000021D9E7002903D0039B01330393F0E788
:10302C00039B023303930A9B002BEAD10598FFF70D
:10303C003DFE039B1B18F1E78022E31BD200934259
:10304C0098D2002F0AD103980838C01817B0F0BDD9
:10305C00B4B7000824CB0008DAFF00009B0830222C
:10306C0038603B706B469B180A9A1B78002A0BD071
:10307C00FB70099BBB70002B1BD100250EAE049B73
:10308C00AB421BD1E01BE1E77B70F2E70EADED56D6
:10309C000EA9595C002D07DA039EA5180140B54214
:1030AC0000D97BE621700134013304999942EDD1AA
:1030BC00E3E7012200237F20D21BF6E7099B002BBC
:1030CC0002D033787F2B1BD80A9B002B1BD012AB62
:1030DC00EB5C23700023013401930123019ADB1B69
:1030EC009B18039AE318934200D957E63378019A58
:1030FC00237001342000059908F033FB019BE41880
:10310C0001350136BBE733789B00FB181A68059232
:10311C000A9A05981A60FFF7C9FD431C0193DCE776
:10312C000E203CE6F0B59BB000AF3B628023FB1851
:10313C001B6806001B07DB0F7B618378F9623A631F
:10314C00BB6300290AD10478BB6BA400E418457852
:10315C000419FB6A9D421BD8A31BFB62F378BB616D
:10316C00BB6B002B04D08023FB181B68DB0719D426
:10317C00BB69002B47D13B6B002B03D030003A6A64
:10318C00F96A9847FB6AFB63BD46F86B1BB0F0BD50
:10319C0001342000FFF78AFDFB6A0130013324184B
:1031AC00FB62D6E73378FB619B007B627368BB6282
:1031BC007B6AF5183B6B002B00D029E1FB6AFB63A3
:1031CC00BB6BEC180023BB63A54232D02B789B0061
:1031DC009859FFF76BFD84217B181B680130002B7D
:1031EC000CD08822BA18BB6B1268934206D27A189C
:1031FC0012685B009852BB6B0133BB63FB6B0135F0
:10320C001B18FB63E0E78023FB181B689B07B2D5F8
:10321C003378FB619B007B627368BB627B6AF51839
:10322C003B6B002B77D1FB6AFB63BB6BEC183B6BE6
:10323C00BB6380220523BA181268250013405A423A
:10324C0053410133FB62BB695B00E3183B633B6B8F
:10325C00AB4299D02B787B636B789B009C59B44B19
:10326C009C4202D3B34B9C4223D37B69002B33D0BB
:10327C00796BB86A06F08CFD00282DD06C468AB0AC
:10328C006A46AD4B5361BB6A93617B6BD361802300
:10329C009B001384A94B136192210023A848103280
:1032AC00890101F051F8A546FB6B023BFB6302352B
:1032BC00CDE77B69002B05D0796BB86A06F068FD09
:1032CC000028DBD180230122FB181B68134209D193
:1032DC00FB6BFA6A9B1AE9E780230222FB181B6836
:1032EC001342E4D02000FFF7E1FC84217B181B681B
:1032FC00002B0DD08822BA18BB6B1268934207D2F0
:10330C00791809685B00421C5A52BB6B0133BB63D2
:10331C00FB6B1B18CAE7BB6B1C1E7B6315D0802193
:10332C0004237A1812681A4014007A637A18126807
:10333C001A420AD00023BC6B7B63183340229B18C3
:10334C002900BA6BD81908F00CFABB6BEB18FB60B0
:10335C00FB63BB695B003B613A69FB689446634461
:10336C007B60FB6B7A68934257D17B6B757800213D
:10337C005A198023FB181B68D2B29B0700D4610832
:10338C008020381800680023C00705D48033FB1850
:10339C001B685B07DB1723407270B370F170300051
:1033AC003A6A796A3B6B9847F863002800DAEBE6D7
:1033BC00FB6940203370BB6B2100B370BB693A6A68
:1033CC00F37018231B18D81975703B6B9847041EA3
:1033DC0000DAA9E0FB6ABA6BF868991A7B6A3A6A58
:1033EC00C91A3B699C46C91A60443B6B9847002834
:1033FC0000DA9BE00025FB6B1C192318FB637B6B2D
:10340C009D4261D300213A6A08003B6B9847BBE6AA
:10341C00BB6B00247B63082390E7FB6B444A1B784F
:10342C00BB60FB6B5D78AB009B59934202D3414A66
:10343C0093420CD37B69002B30D0B968B86A06F084
:10344C00A7FC00282AD0FB6B0233FB6389E77B695E
:10345C00002B05D0B968B86A06F09AFC0028F2D1A6
:10346C0080230122FB181B6813420AD07B6B9B182C
:10347C00073240215218796BD219DBB255547B6359
:10348C00E1E78023FB181B685B07DCD51822402181
:10349C005218631CD2191555DCB2D4E780230222D2
:1034AC00FB181B68134203D07B6B06320133E0E739
:1034BC00402118225218B968631CD2191155DBB27D
:1034CC000234E4B2D554BEE7402208239B18DB1922
:1034DC00EB5C0732BA18137084229B009B59BB63B8
:1034EC00BB181C68002C01D06B00E45A4723012147
:1034FC00F8183A6A3B6B9847002817DBFB6B1B18D4
:10350C00FB63002C04D1B86BFFF7D0FB013084B205
:10351C0021003A6AB86B3B6B9847002806DBFB6BC3
:10352C0001351B18FB636AE7F8632DE6F8632BE69D
:10353C00B4B7000824CB0008C8C000080400000180
:10354C0000BB0008014B18607047C04668010020A2
:10355C00F7B504000D001E00019204F025FF0300D6
:10356C0008F018F9054F32003B5001992800A0478C
:10357C0008F010F9385801F015FBC046080000009F
:10358C00F0B585B00290EFF3108772B6029E012160
:10359C000836300006F0C4FE029B0400143303937B
:1035AC00002837D005000100300000F025FA10216A
:1035BC001E4E203DB368039AAB62029B9B6922604E
:1035CC0063601C60029B9C612A68B3689A736A688A
:1035DC001A611A7B8A431A73002F02D162B6BFF3A9
:1035EC006F8F2800AB689847EFF3108772B6B368FB
:1035FC0010211A7B102313400A42C7D1616822683C
:10360C000A60516023606360AB622000103804F0E4
:10361C0053FBBBE701235B42DC17029A3900100015
:10362C000093019404F034FDADE7C0465C0C00201F
:10363C0010B5040018220021083008F09BF8044B48
:10364C002460E3602300143364606361A36110BDE4
:10365C00A9A2000894461A000023F0B51F000D0023
:10366C00C16989B08907CE0F040000217042B941AD
:10367C00069007911021074E49420493039102933F
:10368C000193614633002800009404F0BDFB09B09F
:10369C00F0BDC0468D350008F7B51E4C1E4B9C4244
:1036AC0036D30020FEBD072301226568A7680735C5
:1036BC009D43ED189D436369134205D07301FF18B8
:1036CC003800FFF7B5FF01E0002EF9D063695A0707
:1036DC0001D502221343FB6198237543734322697E
:1036EC00E1680193C918380063685219FFF7B2FFFB
:1036FC0063699B0706D5E368019A9B181022597BD6
:10370C000A435A7301362368B342CCD81834C5E740
:10371C000026F8E7D8BA0008F0BA0008F7B505009B
:10372C000C00EFF3108672B603F0D6FF6368334AD1
:10373C001B186360A16A936899423AD1616A236A43
:10374C000B60596000239168102223626362087B2E
:10375C0002430A73A36227002B0020370833390079
:10376C001800019300F0A2F801210198E56206F01F
:10377C00D7FD874230D12A006B691432934221D095
:10378C00002B1FD00022203B1F0018682168203717
:10379C00884206DC04D158686168884200D000DC9D
:1037AC000132A9698F420BD01B6A002B08D0203B39
:1037BC00EAE7200001220021103007F0A7FDCAE73C
:1037CC00002A09D1280007F070FE00280AD1022136
:1037DC000B4A0C4806F048FF002E0DD162B6BFF321
:1037EC006F8F09E0236883736368036107F0F0FD52
:1037FC003100280004F0BEFCF7BDC0465C0C002074
:10380C007CC1000840BB0008F0B5274B85B0CB1835
:10381C009B00C2180433C3181C6803930123266849
:10382C0015689E436368029201936B689C4218D1A1
:10383C00022920DC01212000019A06F067FD0127F6
:10384C00002101962A00200006F060FD39002800B6
:10385C00019A06F05BFD029B1C60039B1D6005B08A
:10386C00F0BD02291EDC00213200200006F04EFDC6
:10387C0000270121E6E733000127019E0193029BFB
:10388C002200043B18684168491B4B425941C9B29C
:10389C0006F03CFD39003200200006F037FD79427D
:1038AC007941CFE70027EAE7FEFFFF3FF0B589B08B
:1038BC006B46012500AFBB600B6806002B400B600C
:1038CC0000234B6003680C00002B08D1016085605D
:1038DC000B68AB432B430B60BD4609B0F0BD6A4689
:1038EC0083689B000B33DB08DB00D31A9D461A0060
:1038FC00FB6106F0EEFCFA698300D3183B61043BD4
:10390C001B68B8617B6120007368796998476840CF
:10391C002200C1B2786906F0F9FC2368AB4323603E
:10392C003B691C60BB69BC6901333B61314B9C46F4
:10393C00FB696444A4001C193B69BB61BB69012B86
:10394C0006DC0121FB691A6813680B43136046E01F
:10395C00A36862687B601368190029402B423ED132
:10396C002368F9607B615B689A4204D101217B6911
:10397C00F9601B68AB43002B16D019688C462900E4
:10398C006046814310D0796978690968083CA9437D
:10399C0001601168A943294311601A68AA432A439C
:1039AC001A60BB69023BC8E753687A689B1A5A4293
:1039BC005341FA68934203D0B969F869FFF724FFC1
:1039CC00B969F8690139FFF71FFF012221680B68FB
:1039DC00934313430B6061680B6893430B60B368AC
:1039EC003A69934200DAB260FB691B683360BB68CA
:1039FC009D4671E7FEFFFF3FF0B589B06B466A4606
:103A0C0000AF3B6083680D009B000B33DB08DB00D1
:103A1C00D31A1A009D46BB61F86006F05AFCBA69CD
:103A2C008300D3181E1F3268F861AA425BD12C6840
:103A3C00012C49D96A68002A46D0FA690020012A6B
:103A4C0002DD1A00083A1068012294431C60FB69DD
:103A5C009B18FB61FA6963689200002B48D1BB6923
:103A6C009B183B61083B1B687B61002847D0416871
:103A7C002200491B4B425941C9B206F047FC7B69F5
:103A8C009D423FD1012221682B68914313400B4387
:103A9C002B60236813402B4323606B683268636090
:103AAC0000236B603B69043B196831601A602A681B
:103ABC0001211000236888430B4003432B602368CB
:103ACC000A408B43134323602B68012B31D901220D
:103ADC0093431C00FB69934236DCFB681C6001229B
:103AEC002368134323603B689D46BD4609B0F0BD77
:103AFC00B9691C008B50FA690132FA61AAE7FB68BC
:103B0C001C60BCE77B692A0059687869091B4B4229
:103B1C005941C9B206F0FAFB2A680121100023684A
:103B2C0008408B4303432B6023688A430B401343A9
:103B3C00B2E7FA696C68012A1FDCFB681C60002C78
:103B4C00CDD1FB689C60CEE7FB69BA69023B9B0058
:103B5C00985841682200491B4B425941C9B206F0A2
:103B6C00D5FB2B68DB0703D50123226893436CD06C
:103B7C00012223681343236067E0FA69B969023AAA
:103B8C0092005058002CE4D1012201211A400B4222
:103B9C0000D1CDE0FB69694A9E18BB69B6009B1940
:103BAC003B611B68BB603B69043B1E680023746867
:103BBC007B61BB68A34203D1012334687B619C43C6
:103BCC000122236813421AD13B69F9691C60B86958
:103BDC00FFF71AFE01223368B968934333602368F8
:103BEC009343134323603B695960FB699B18FB614A
:103BFC003B691E687B69002B2CD034689443226887
:103C0C0001201300616883433961824202D919682B
:103C1C0001424FD03969002903D0012009680142C3
:103C2C001FD0BB689D4204D100223000796906F098
:103C3C006DFB0122236893432360336813420BD03E
:103C4C00FB69013BFB619342A4D1BB69FA681B6819
:103C5C00136048E77468D2E701229343134333603F
:103C6C00F3E77969002953D0012A26D8FB69334A36
:103C7C00B8699B18BA699B00D3183A691C605A60E2
:103C8C007B60FB69591CFFF7BFFD01222368396972
:103C9C00934323603B691B68934313430B607B681E
:103CAC001C687B69002B3DD0236893437A68B96804
:103CBC00116008E07A69002A27D0012210001968E7
:103CCC007A618843D2D00122216830689143104038
:103CDC00014321603168914311433160196891436C
:103CEC000A431A60FB69154AF9699B18BA699B006B
:103CFC009C501000FFF788FDBB689D42A5D10022A7
:103D0C003000796906F002FB9FE73A69002A07D078
:103D1C003A69116801228A4306D13B617A61A5E7B1
:103D2C003B61A3E76368C1E700223B697A61CAE79C
:103D3C004168491B4B425941C9B2E3E7FFFFFF3FC2
:103D4C00802102200A4BC9039A6982B00A439A6106
:103D5C009A690A4007490192019A4A6882430020F5
:103D6C004A609A6904490A409A6102B07047C04699
:103D7C000010024000580140FFFFBFFF1023044A0F
:103D8C00002011680B431360024B034A1A60704702
:103D9C00002002407002002000127A000649074AF7
:103DAC0010B5521A064807F0DCFC0321054A1368CB
:103DBC000B43136010BDC04600000008BC00000897
:103DCC000000002000000140F7B505000600002DA2
:103DDC0001D13000FEBD2800FCF7B0FA012383406E
:103DEC00DA430E4F04019D433B1901931B7B009258
:103DFC00002BECD0E3591B69002B09D1009B3C191B
:103E0C001E40636804221968019800F051FADEE73D
:103E1C00381998470028DAD1F0E7C04680BB000873
:103E2C00F0B5002289B00F490F4807F0A3FB00241E
:103E3C00002600270E20C0220C4D039006960797F3
:103E4C0028000B4B0B4904940294019400949200AB
:103E5C0003F0DAFF0849280003F078FF200009B0CE
:103E6C00F0BDC046893E0008B807002018030020AA
:103E7C0069410008980C0020B4C1000810B5024834
:103E8C0003F01AFF10BDC04608030020F7B50090E0
:103E9C001E48019106F097FB061E33D00025280022
:103EAC00FEBD237B002B0FD02368DB68002B01D0D9
:103EBC002000984723681B69002B1BD163680422E0
:103ECC002000196800F0F4F901361034104B9C42B4
:103EDC00E7D3009B002BE2D0002DDFD02800FFF7AA
:103EEC0073FF019B0500002BF6D00021642004F029
:103EFC003DFAF1E7200098470028DFD03B00B340A3
:103F0C001D43E1E705000127024CDFE7800A002092
:103F1C0090BB000880BB0008014B8000C058704764
:103F2C00E4BB0008030010B50800002B05D0044AC0
:103F3C00136000F0AFFC002010BD16204042FBE7E0
:103F4C006C01002010B5054C2378002B02D10448DD
:103F5C0003F0B2FE0123237010BDC0468C0C002070
:103F6C000803002010B50400074806F02CFB002CB9
:103F7C0003D00121054807F02FFB054807F006FB8D
:103F8C00044803F099FE10BD780A00207C0A00203A
:103F9C00B80700200803002010B50021014807F0E5
:103FAC0028FB10BD780A002070B5FFF7F5FF05005F
:103FBC00084C094B9C4200D370BD63685B79002BA5
:103FCC0006D023685B68002B02D02900200098479C
:103FDC001034EEE780BB000890BB000810B5044C11
:103FEC000449200005F0FEFF034B1C6010BDC046C9
:103FFC00B0020020D0BB0008700A00200023FA2178
:10400C00064A10B51370064A89001360054A064823
:10401C001360FFF787FFFFF7E1FF10BD8D0C002049
:10402C00780A00207C0A0020DDA5000810B5044C9D
:10403C00010000220023200005F0F5FF10BDC04652
:10404C00B002002010B5024806F087F810BDC0463B
:10405C00B002002010B5034B0100186806F0CEF832
:10406C0010BDC046700A002010B5024806F0FFF8DB
:10407C0010BDC046B002002070B5204B1878002847
:10408C0030D0FFF7DFFF051E0AD001211C4807F0D6
:10409C00A3FA1C4C1C4B9C4225D32800FFF7DAFFDB
:1040AC001A4B1B4C1B68002B11DD07F05FFA0A2220
:1040BC000023FCF787F922686368801A994100296C
:1040CC0003D1FA239B00984201D9FFF76DFF2268B8
:1040DC006368FA200021800012184B412260636053
:1040EC00FFF7C2FF70BD63685B79002B04D02368B7
:1040FC00290020001B6898471034CBE78C0C00205B
:10410C007C0A002080BB000890BB0008780A0020C5
:10411C00B007002070B50E4D297800290CD1012074
:10412C00FFF7B4FE0B4C0C4B9C4206D3FFF7A4FFDD
:10413C000028FBD101232B7070BD63685B79002BC9
:10414C0003D0236820009B6898471034EBE7C046E7
:10415C008D0C002080BB000890BB0008F7B5002137
:10416C000800FFF793FE041E2DD0FA2700267F00CF
:10417C0007F010FB1C4B1D4A1B581360002B06D07C
:10418C001B4B1B68092B02DD1A4803F095FD00231D
:10419C000093002C07D02000FFF716FE041E02D15E
:1041AC0001277F423E00FFF767FF0190002808D1EE
:1041BC00009B114D002B13D10E483A00330003F035
:1041CC009FFD019BE4E701277F423E00D0E72B686F
:1041DC009B69002B03D00022280011009847103552
:1041EC00064B9D42F3D3E7E708000000740A002059
:1041FC007C0A00200803002080BB000890BB00084C
:10420C0013B5154806F0DFF9144B1B78002B0AD0B8
:10421C00EFF3108472B6FFF72FFF002C02D162B6B9
:10422C00BFF36F8F13BD0E4B1B68002BFAD0002809
:10423C0009D1002200230B480092019300230A4A63
:10424C0004F00CFBEEE70928ECD1064807F09EF9C8
:10425C00064803F031FDE5E77C0A00208D0C0020B8
:10426C00740A0020B8070020102700000803002063
:10427C0010B5064B04001B6898472100A060044849
:10428C0005F04FFFFFF7BCFF10BDC0466C010020CE
:10429C00B0020020044B054A00209B1ADB0899420F
:1042AC0001D2C9008858704780BB0008F0BA0008DA
:1042BC00084B10B5C31A44681B11013323714368B2
:1042CC009A7101224368196043685A71FFF73AFEEC
:1042DC0010BDC04680BB0008F0B55E1C85B0B500B3
:1042EC0000902800072317309843033080080F00F4
:1042FC000192FFF79BFE02AB04000322581D002124
:10430C0007F038FA03AB1E70002C0BD0039B210076
:10431C002361002314312A1F0198C058C85004335C
:10432C009A42F9D1E023BA015B001A406D02054BA9
:10433C002A431A4020000023009906F07CF905B0AE
:10434C00F0BDC046C0FF0F00F0B591B004AF3B60AC
:10435C000B035B0D0D0078607A613B610C0D002B3B
:10436C0000D173E0BB60002604237E62BE62FE6255
:10437C0002931833FB1801930A231822009302337B
:10438C009B18DB193200B9687869FEF7CBFE8023E5
:10439C00F8601B01984224D37B696C461A795B79CF
:1043AC008AB01B0213437A69927912041A437B690F
:1043BC00DB791B06134304AA9361294B2949D3616A
:1043CC0080239B001384284B51611361922133008D
:1043DC00264810328901FFF7B7FFA546BD460DB040
:1043EC00F0BDFB6817345B055A0D3A61204A1B0B74
:1043FC0015401D43FB68E0180723984303308008E1
:10440C00FFF714FE041E15D0030010337B62FB680B
:10441C00FE62BB62042302931833FB1801930A2338
:10442C001821009302335B18124AB9687869DB19BA
:10443C00FEF778FE3B690E4A5B0215401D432A00CD
:10444C0020003B68796806F0F6F8C7E720000723E0
:10445C001730984303308008FFF7E8FD0400E9E7C4
:10446C00FF070000C9C100080400000120BB0008C0
:10447C00FF01F0FF15A60008F0B587B00E9F0400F1
:10448C00150002910393002F15D00F9B102105935B
:10449C00009300203B000D9AFEF768FC8023060079
:1044AC001B01984208D30221174A1848184B06F0F2
:1044BC00E2F807B0F0BD3E00072322000C9C1D4023
:1044CC001A40D2001734AD011543A01972021543DE
:1044DC0098430C9A0330120580081543FFF7A6FD8C
:1044EC00041E09D0002F07D00F9B310000930D9AAA
:1044FC003B001030FEF73AFC2A002000039B029987
:10450C0006F099F8D5E7C04608C2000820BB0008A1
:10451C00FF0700004068002804D0044BC01AC008F4
:10452C0000B2704701204042FBE7C046F0BA0008D9
:10453C000EB417B5054C05AB04CB0100200001935C
:10454C0000F06CFC1EBC08BC03B01847DFA60008CA
:10455C0010B5CB0604D4890603D50349FFF7E8FF51
:10456C0010BD0249FAE7C0463DC000083CC0000837
:10457C00F0B58FB0069315AB1B7807000C000592B5
:10458C000493002B00D1B4E00225199B199A1D400D
:10459C0001231A400B92199A07331A400792199A61
:1045AC00F8331A400892002606F02CF80200B042AC
:1045BC0004D038008D49FFF7BBFF0600002D09D051
:1045CC004423199A1A4235D1220038008849FFF742
:1045DC00AFFF36180B9B002B0AD0049A854B920028
:1045EC00D258002A00D1844A38008449FFF7A0FF32
:1045FC00089B002B5AD0079B002B77D11C00059BE6
:10460C00002B05D01A0038007D49FFF791FF0400FC
:10461C00169B7C48A419002B00D0BEE0189B002BE5
:10462C0074D1199BDB0700D5DAE038001999FFF734
:10463C008FFFBEE00020744B1D688542C9D0734BC0
:10464C0020001968FBF748FD2900FBF781FD0C00E1
:10465C00E12109010990FBF77BFDFA2080000A910A
:10466C0060432900FBF774FD0C000C903C210A9868
:10467C00FBF732FDE1210D9009010998FBF72CFDA8
:10468C000990FA20800029006043FBF725FD0C9B64
:10469C0002903C210A980193FBF75AFD38000091D7
:1046AC000D9B099A5A49FFF743FF92E7079B089C19
:1046BC00002B08D0049A574B920038005649D25818
:1046CC00FFF736FF0400059B002B05D01A003800BD
:1046DC004B49FFF72DFF2418069B002B98D01A008E
:1046EC0038004E49FFF724FF241891E70023069366
:1046FC00E0E7069B4A48012B00D14248169B049CDC
:10470C00002B4AD1189B002B53D00024189E102E3E
:10471C0000D9102638001999FFF71AFF0025AC4272
:10472C004CDC179B38001A783E49FFF701FF012536
:10473C0007231D4203D138003B49FFF7F9FEAE4277
:10474C0042D9179B38005A5D3649FFF7F1FE013507
:10475C00102DEDD1002538003449FFF7E9FE2B0070
:10476C00179AD25C1300203B5E2B00D92E22380006
:10477C002F49FFF7DDFE0135102D2AD007231D42EE
:10478C0003D138002849FFF7D3FE2B00AE42E7D8FF
:10479C0038002549FFF7CCFEEDE7169B3A0025497A
:1047AC0005F0C2FA189B002BB0D1049B002B00D053
:1047BC0037E7380005F081FF0FB0F0BD38001A491B
:1047CC00FFF7B6FE0135AAE738001B49FFF7B0FE2C
:1047DC00BDE7179B9B191793189B9B1B1893E2E73C
:1047EC003800054A0549FFF7A3FE1EE745C200083D
:1047FC0049C20008F4BB000840C200086EC20008A1
:10480C0071C20008DFA60008880A0020840A002074
:10481C0052C2000808BC000875C200087BC2000820
:10482C0005A7000880C2000888C200088AC20008D8
:10483C008CC20008294E000886C2000873B5114AC4
:10484C0004000B000568914200D91300052168464D
:10485C000D4A04F043F80600636828000B220B494C
:10486C005B6805F01BFF63683200280069465B68D3
:10487C0005F014FF636828001B2205495B6805F0EE
:10488C000DFF73BD0F2700009CC30008ABC20008CE
:10489C008FC20008012310B500211C00074A90426A
:1048AC0007D8074A002900D101231360054B186073
:1048BC0010BD210040085B00F1E7C04640420F00EC
:1048CC00840A0020880A002070B50D0004004618E8
:1048DC00B44201D1280070BD2178034801348368AB
:1048EC005B689847F4E7C04654B90008F0B585B04A
:1048FC0000AF0C1EB86036D06E468AB06D460968A3
:10490C006268A3682B6205232048A9616861EA618B
:10491C002B61A1212A001E481032002389017A60E4
:10492C00F860FFF711FDB546E168AD462269636991
:10493C002B6205231748A9616861EA612B61A121EB
:10494C0000237A68F8688901FFF7FEFCB546E36935
:10495C000121114AF86805F08EFEA36901210F4A66
:10496C00F86805F088FEBB68012B07D1EFF30583CF
:10497C000B4A0748B968103B05F07DFE2100B8686A
:10498C0002F01EFFBD4605B0F0BDC046F1C20008E6
:10499C0038BB000820C300084FC300085EC30008E2
:1049AC008CC3000810B5034B1B68984700F024F823
:1049BC0010BDC0467801002030BFFDE7F7B50B4DA8
:1049CC000B4F2A00EE198C1B01900A49200006F0AF
:1049DC00C8FE60193A00002106F0CCFE3000019BA5
:1049EC00083C8C3308301C60FEBDC0460000000043
:1049FC0004000000A0BB0008074A9368997B7F293C
:104A0C0008D85269934205D08023044A5B0551684B
:104A1C000B4353607047C0465C0C002000ED00E077
:104A2C00F0B53E4B8BB05B6800AF7B60DB05DB0DFC
:104A3C0004003B6062B6BFF36F8F394E130EFF2B31
:104A4C0008D1F33B1340082B3DD101213000354AEE
:104A5C0005F00AFE00252C003B68032B39D1324AA5
:104A6C000121300005F000FEA369304A934202D3C5
:104A7C002F4A934205D32F4A934249D32E4A93424D
:104A8C0046D2023B1A882D4B9A4241D12368012110
:104A9C0030002B4A05F0EFFD266808232022F81879
:104AAC00210006F05EFE7B6A002D33D0DA0502D1C0
:104ABC00244A13437B6208233000F918FFF716FFD2
:104ACC00BD460BB0F0BD01251207C5D50C00002565
:104ADC00C2E7F822796852001B4B114200D01B4BE5
:104AEC006A468AB07A606A4693613B681849103B03
:104AFC00D36180239B001384164B51611361912168
:104B0C000023300010328901FFF71EFC7B689D46A4
:104B1C000026C2E75B0A5B02CCE7C04600ED00E072
:104B2C0038BB0008CDC30008F8C30008BC0000085F
:104B3C00ACB70008BC000020BC00002002DF000065
:104B4C000FC40008FF0100009FC30008B4C3000895
:104B5C002BC40008040000010821024A53698B434E
:104B6C005361704700ED00E0EFF30880EFF309812B
:104B7C0001B57246FFF754FF01BDC04672B6074837
:104B8C000749401880F30988EFF314800221084389
:104B9C0080F31488BFF36F8F05F024FE9817002064
:104BAC000008000010B50A4B9B6883420DD1EFF34F
:104BBC000583002B09D08022064B520559680A4305
:104BCC005A605A6A04490A405A6206F098FC10BDB1
:104BDC005C0C002000ED00E0FF7FFFFF0A4A9368A9
:104BEC001900903108600B219433494219608023DD
:104BFC0006495B05486803434B6062B6BFF36F8F91
:104C0C0093689433186870475C0C002000ED00E04A
:104C1C00EFF3108372B680210A4A09055369936039
:104C2C00094A516019008C310968084A90331160A7
:104C3C0000211A6819608A4202D162B6BFF36F8FE5
:104C4C007047C0465C0C002000ED00E0B00A00206C
:104C5C0010498A6810481044EFF3098CF0C04346A1
:104C6C004C4655465E466746F8C074467046FFF79C
:104C7C00CFFFA64607498A68074C10191030F8C8B0
:104C8C009846A146AA46B346BC462438F0C88CF3D5
:104C9C00098870475C0C0020380000000420714625
:104CAC00014202D0EFF3098001D1EFF30880816952
:104CBC00023909780229FFD001B505F087FD01BD45
:104CCC0043B2000605D41F221A4001239340014A27
:104CDC001360704700E100E030B5FF2503220B00A4
:104CEC00290040B20240D20091409B012B40C943A5
:104CFC00934000280ADBC0240A4A800880008018F0
:104D0C00A40002590A401343035130BD0F22104036
:104D1C000838054A800880008018C2691140194380
:104D2C00C161F2E700E100E000ED00E010B5203ACF
:104D3C001360029B01245360039B07499360049BFF
:104D4C00A143D36080235B04D3610023916182650E
:104D5C009030036010BDC0465D35000870B50A4B3D
:104D6C000D0098608C30094B016816001960341CDA
:104D7C0085F309880020064B9847201C002100224F
:104D8C000023044C2047C0465C0C0020B00A0020D5
:104D9C0007A800085D3500081022014B1A61704706
:104DAC0000ED00E0F0B5C02400220326FF25A4008E
:104DBC0010002F003040C0008740054993089B002D
:104DCC005B1819590132B94319511F2AF0D1F0BDA2
:104DDC0000E100E010B5EFF30583054A103BDB0062
:104DEC00D118496898588847FFF706FE10BDC04691
:104DFC00E0B9000810B5024B1B689847002010BDA5
:104E0C00B40A0020034B044A1860022391780B4328
:104E1C0093707047B40A00207C010020F0B587B075
:104E2C0007000E0014000021102268461D0006F039
:104E3C00A1FC6A4602239370054B2A0021006846A8
:104E4C0001930497059603F077FD07B0F0BDC046BB
:104E5C0021A80008072310B50449054A99430548C1
:104E6C00521A04F0F2FE002010BDC0467F2900202B
:104E7C0000800020B80A0020F0B58BB009921022F7
:104E8C000591438806001A4007920822050013403A
:104E9C00446A0193EB683278089300236F8804937B
:104EAC00012A13D1042173880B420FD0736AD8697D
:104EBC007369017980681B1A0B415C481B02034023
:104ECC003069C84001050B431A4304922B6A0393C3
:104EDC00079B002B65D02B78012B00D098E0033377
:104EEC001F4200D194E0019B002B4FD16B612B61D1
:104EFC002B0000221C33EA61EFF3108272B6216A98
:104F0C0023620B60002A02D162B6BFF36F8F2000C0
:104F1C0005F0D5FC20233B40069320231F4256D19D
:104F2C00A3691800029305F080FC051E00D173E004
:104F3C001022069906F01EFC029B029ADB89013BAB
:104F4C00D381059B6B60089BAB60049BEB60069B5D
:104F5C002B60EFF3108372B6E26AE5621560002BEA
:104F6C0060D0200001210C3006F029FB6368002B77
:104F7C0006D0013B6360002B02D1206802F09CFE3E
:104F8C00A06802F099FE22E0039D83E769692A6913
:104F9C00002C37D0002938D0E069002825D1686171
:104FAC0028612A00002163691C32E961EFF310814A
:104FBC0072B618681A600260002902D162B6BFF39B
:104FCC006F8FDA890132DA81019B002BA2D0099B09
:104FDC00002B01D18C3B0593BB07D5D4FF0702D521
:104FEC00039805F04CFC0BB0F0BD002A02D16A61AD
:104FFC002A61D6E70379DA4004F07CFE00236B616A
:10500C002B61CEE76C612C61CBE769612961C8E744
:10501C00019B002BC5D16BE720000121103006F05D
:10502C00CEFA9EE762B6BFF36F8F9AE700FF0F00D0
:10503C0070B5282400251E4B1E4A93421ED3002512
:10504C001D4B1E4CA34230D3002070BD200050439A
:10505C00196909180800CD611C30EFF3108172B684
:10506C001E6818603060002902D162B6BFF36F8FE2
:10507C00013299899142E9DC1433DDE70022F8E72B
:10508C001A69080112181560EFF3108072B61E68C9
:10509C001A603260002802D162B6BFF36F8F013103
:1050AC009A898A42ECDC1433CCE70021F8E7C0463D
:1050BC0018030020180300201803002018030020F8
:1050CC0010B50400436B006B98472100014806F0B3
:1050DC00DFF810BDEC02002007B5002300220848C1
:1050EC0001A902F009FD02000020824207D10198BB
:1050FC00826201221030110006F008F901980EBDF1
:10510C00EC020020030010B5002807D0002901D0C4
:10511C00002A04D119000C4806F0BAF810BD4263FD
:10512C000A4A01638260002242604A780121002A07
:10513C0003D0FF3A51424A415142196004481900C8
:10514C00FEF7ECFAEAE7C046EC020020CD5000086E
:10515C00C40A002070B505000024012631002B780C
:10516C001B19DAB291400A4A50690840884208D1AA
:10517C0008495061DB005A58002A02D0C918496806
:10518C00904701346B78E4B2A342E7D270BDC046BD
:10519C0000040140E40A00200022052010B50C4C4C
:1051AC00110020706070FFF797FD0022062011009F
:1051BC00A070E070FFF790FD0C220721054806F067
:1051CC00D9FA002207201100FFF786FD002010BD40
:1051DC007C0200208002002010B50400FF20002C6F
:1051EC0005D02000FBF78CF81F23181AC0B2044B13
:1051FC001856044B1A6814431C60FFF761FD10BD70
:10520C007C02002000040140024A136883431360AF
:10521C007047C04600040140020000B50800032995
:10522C000AD80E4BFAF74EFF02090C1399689143FA
:10523C009960D9689143D96000BD99681143F7E72B
:10524C00D9681143D960996891439960F4E79968DA
:10525C0011439960D9680A43DA60EDE70004014014
:10526C0070B5FF230D001400002804D0FBF748F89C
:10527C001F231B1ADBB2094AD8008358AB4203D157
:10528C0011184968A14204D0002B04D115501218F2
:10529C005460002070BD10204042FBE7E40A00205F
:1052AC00FF2310B5002804D0FBF72AF81F231B1A84
:1052BC00DBB20021024ADB009950D218516010BDBC
:1052CC00E40A0020032310B50F2403409B009C40EC
:1052DC009940044A8008800080188268A2430A43DF
:1052EC00826010BD00000140032303408008054A82
:1052FC000230800080580F229B009A401040D8400A
:10530C007047C04600000140836810B5DB0715D517
:10531C00042483680A49234207D0102382680A4078
:10532C001343836083682342FCD1022382680A40C2
:10533C0013438360012382681A42FCD110BDC0461E
:10534C00E8FFFF7FF8B50C792022230013401442AC
:10535C0006D02549254805F0F8FA16204042F8BD3C
:10536C000A78082A01D02249F4E74A78042A01D0A5
:10537C002049EFE742684D8814680069002D14D06D
:10538C001D498D421DD016001C4F18365900715AFC
:10539C00394389B28D4209D00133082BF6D1184913
:1053AC00124805F0D2FA1749D4E72B0028321278AC
:1053BC0052B2012A07D0022313499A43F0D100209C
:1053CC00CDE70723F2E70022A6308256511C01D00C
:1053DC00934206D10721037062698A4313436361C8
:1053EC00EDE70A49DCE7C04670C40008F8BA0008CB
:1053FC0098C40008ADC40008FF3F000000C0FFFFC8
:10540C00C7C4000846C5000810C50008EAC4000857
:10541C00030002009430016890331B6898321160CD
:10542C005B681968034B8A681A40042313438B602A
:10543C007047C046E8FFFF7FF8B50125836804007C
:10544C002B4216D10A26056083680A4F3B402B433A
:10545C00836023682B420CD1A3682B4203D1A36831
:10546C003B402B43A3606420013E05F0B3FE002EAD
:10547C00EFD1F8BDE8FFFF7F37B5040043681D6826
:10548C002800FFF741FF6368124A1B6899681140B6
:10549C0018320A439A609A68002AFCDB63680E484B
:1054AC0099688368DB68002B0ED10C490C4805F019
:1054BC004CFA019B002B03D10A49094805F045FA27
:1054CC002800FFF7B9FF37BD01AA98470028F0DA8A
:1054DC00EBE7C046E8FFFF7F8CB800085CC500080E
:1054EC00F8BA000876C50008F0B5036989B04033F6
:1054FC0004000D00059301225242D317059802F0C7
:10550C00FFFB636826691B68AA6803933300943316
:10551C001A606F68DF603800FAF774FF33000022FE
:10552C00A43318705A7097420BD16C496C4805F033
:10553C000CFA16246442059802F0BEFB200009B058
:10554C00F0BD2A276168CF5708682C310491BA4204
:10555C0002DB644914D1E9E704999300CB58297C08
:10556C008C46D90C8C4535D107215A0B0A40049234
:10557C001A0C0A40DF040692DAB2FF0EFF2A2BD176
:10558C00636806932369A0331F6800230493002FDC
:10559C003BD1069B29331B785BB2002B05D1069BB4
:1055AC001A68049B5B035B0B93623300A43319787A
:1055BC002B684900002B02D09B8901335943EB68BF
:1055CC008B4230D2484A00914548012105F05BF8E6
:1055DC000C24AFE70132BAE7DBB20793C3181B68A0
:1055EC00049AFB401340069A9A42C9D0FFF78CFEEE
:1055FC0004996368B9401A68079BD21813688B43E7
:10560C000699B9400B431360BAE73800FDF73EF931
:10561C0001230138C0B28340049A80061843024328
:10562C0004929F43B3E76B7C002B05D02F492C4889
:10563C0005F08BF986247DE7AB7C002B02D0200093
:10564C00FFF71AFF0398FFF7F7FE1023039A136076
:10565C00042352681343039A536033002A006433C3
:10566C0013CA13C3002403CA03C334662B68A342B2
:10567C002FD03200783223CB23C21B683500136045
:10568C003300783373661C82B36F0835A34220D085
:10569C002100300005F0ADFF210063220023B06F24
:1056AC008018594164220023FAF78CFE00220090E6
:1056BC0000232800019103F0D1F83000012252425E
:1056CC00D317503002F01CFB002800D03066346E2B
:1056DC0031E73000FFF79CFEEFE7C0468AC50008B3
:1056EC00F8BA00089FC50008B2C50008D7C5000865
:1056FC0070B5294B1A68520738D5284D1A6C2B688F
:10570C00274C991C29601A8022002100A53213789D
:10571C00A4310133DBB213700978994226D10023EE
:10572C001370636E002B2FD02200E36F8832128827
:10573C00002B06D01B491C48984701280CD0022886
:10574C001CD02200210088328431138809889942A8
:10575C0014D90133138003E0230098331B682B60AA
:10576C00A36F002B03D12000FFF752FE70BD012167
:10577C00200005F031FF0128F8DDF4E7A36F002BC2
:10578C0002D00A4805F002FF0123A6345B422380B5
:10579C00074802F091FAE9E7002401405401002087
:1057AC00C00000202401002068B90008C8000020B7
:1057BC0010010020F0B5456887B02B68040007691C
:1057CC0002932A4B1800019305F013FD002808D111
:1057DC0013262749274805F0B8F87642300007B061
:1057EC00F0BD3B000122903352421C60DA826668A5
:1057FC0001983368B1680393019B9B681B689847B9
:10580C00002807D1039B32691B699B009B0813433B
:10581C00039A13610021686905AA05F047FA061E70
:10582C0007DB059B00221979186800F083FD061E22
:10583C0006DA01213300104A0E4804F01CFFCDE7B4
:10584C006B68002B00D098472000FFF715FE029BD9
:10585C000A4ADB681340029AD360BB6C002B03D15D
:10586C003800403002F028FA0026B7E78CB8000860
:10587C00F2C50008F8BA000811C600083FF2FFFF95
:10588C000B6813B51A00143A082A0CD8074C486850
:10589C001B191A68024300201A600B681B191B683D
:1058AC000193019B16BD86204042FBE7001002408D
:1058BC000B681A00143A082A07D80020044A4968D1
:1058CC009B181A688A431A60704786204042FBE78F
:1058DC0000100240F0B50A68082A24D8C5235B00E2
:1058EC00D340DB071FD54B68FF2B1AD0FF221C00BF
:1058FC0007261F270D4814402418580B1B0A3B4041
:10590C0030409840256885432560496807480A401F
:10591C000B0C090A334039408B40121810680343B2
:10592C0013600020F0BD86204042FBE700100240CF
:10593C0010B5164B086814001B68072812D00828ED
:10594C000AD800280ED0013807280BD8FAF7BAFB72
:10595C000E0D190D0A0A0A11182807D01C2805D09B
:10596C00142803D08620404202E00023002023604C
:10597C0010BD00F0BFF8002805D000F0BBF8030004
:10598C00F4E7034BF2E70520EDE7C0467002002078
:10599C00409C00000B681A00143A082A08D8094ADF
:1059AC0048689B181B689843434258410130704724
:1059BC0001221000082BFAD88A30FF30D840104052
:1059CC008018F4E700100240F8B53B4D00F096F853
:1059DC00280004F0D1FF01F091FE384C384A63687E
:1059EC002E001B061B0FD35CD840137807001E41FA
:1059FC00B04202D2300001F0B7FE80232268DB02F5
:105A0C0013432360802322685B02134323608023AB
:105A1C009B0222681A42FCD00123626A13430222C1
:105A2C006362636A1342FCD00C2163680B40082B41
:105A3C0016D12368134207D1012322681343236034
:105A4C00022322681A42FCD00322636893436360EA
:105A5C000C2362681A42FCD1F022636893436360A2
:105A6C002368184A1340236000F032F88023226820
:105A7C005B041343236080239B0422681A42FCD0EE
:105A8C00F022636893436360032362689A43013B8B
:105A9C0013430C22636063681340082BFBD1B7429D
:105AAC0002D3300001F060FE074B084A1D606368AA
:105ABC00002013406360F8BD006CDC020010024053
:105ACC00CCC90008FFFFFFFE70020020FFF8FFFFAB
